{
  "contractName": "OrganDonation",
  "abi": [
    {
      "inputs": [
        {
          "internalType": "address",
          "name": "_admin",
          "type": "address"
        },
        {
          "internalType": "address",
          "name": "_donorStorage",
          "type": "address"
        },
        {
          "internalType": "address",
          "name": "_recipientStorage",
          "type": "address"
        }
      ],
      "payable": false,
      "stateMutability": "nonpayable",
      "type": "constructor"
    },
    {
      "anonymous": false,
      "inputs": [
        {
          "indexed": false,
          "internalType": "address",
          "name": "donorAccount",
          "type": "address"
        },
        {
          "indexed": false,
          "internalType": "string",
          "name": "name",
          "type": "string"
        },
        {
          "indexed": false,
          "internalType": "string",
          "name": "organ",
          "type": "string"
        }
      ],
      "name": "DonorRegistered",
      "type": "event"
    },
    {
      "anonymous": false,
      "inputs": [
        {
          "indexed": false,
          "internalType": "uint256",
          "name": "hospitalId",
          "type": "uint256"
        },
        {
          "indexed": false,
          "internalType": "string",
          "name": "name",
          "type": "string"
        },
        {
          "indexed": false,
          "internalType": "string",
          "name": "location",
          "type": "string"
        },
        {
          "indexed": false,
          "internalType": "string",
          "name": "contactInfo",
          "type": "string"
        }
      ],
      "name": "HospitalRegistered",
      "type": "event"
    },
    {
      "anonymous": false,
      "inputs": [
        {
          "indexed": false,
          "internalType": "address",
          "name": "donorAccount",
          "type": "address"
        },
        {
          "indexed": false,
          "internalType": "uint256",
          "name": "donorIndex",
          "type": "uint256"
        },
        {
          "indexed": false,
          "internalType": "address",
          "name": "recipientAccount",
          "type": "address"
        },
        {
          "indexed": false,
          "internalType": "uint256",
          "name": "recipientIndex",
          "type": "uint256"
        },
        {
          "indexed": false,
          "internalType": "string",
          "name": "organ",
          "type": "string"
        }
      ],
      "name": "OrganMatched",
      "type": "event"
    },
    {
      "anonymous": false,
      "inputs": [
        {
          "indexed": false,
          "internalType": "address",
          "name": "donorAccount",
          "type": "address"
        },
        {
          "indexed": false,
          "internalType": "uint256",
          "name": "donorIndex",
          "type": "uint256"
        },
        {
          "indexed": false,
          "internalType": "address",
          "name": "recipientAccount",
          "type": "address"
        },
        {
          "indexed": false,
          "internalType": "uint256",
          "name": "recipientIndex",
          "type": "uint256"
        },
        {
          "indexed": false,
          "internalType": "string",
          "name": "organ",
          "type": "string"
        }
      ],
      "name": "OrganRetrieved",
      "type": "event"
    },
    {
      "anonymous": false,
      "inputs": [
        {
          "indexed": false,
          "internalType": "address",
          "name": "recipientAccount",
          "type": "address"
        },
        {
          "indexed": false,
          "internalType": "string",
          "name": "name",
          "type": "string"
        },
        {
          "indexed": false,
          "internalType": "string",
          "name": "neededOrgan",
          "type": "string"
        },
        {
          "indexed": false,
          "internalType": "uint256",
          "name": "urgencyLevel",
          "type": "uint256"
        }
      ],
      "name": "RecipientRegistered",
      "type": "event"
    },
    {
      "anonymous": false,
      "inputs": [
        {
          "indexed": false,
          "internalType": "address",
          "name": "recipientAccount",
          "type": "address"
        },
        {
          "indexed": false,
          "internalType": "uint256",
          "name": "recipientIndex",
          "type": "uint256"
        },
        {
          "indexed": false,
          "internalType": "uint256",
          "name": "oldUrgency",
          "type": "uint256"
        },
        {
          "indexed": false,
          "internalType": "uint256",
          "name": "newUrgency",
          "type": "uint256"
        }
      ],
      "name": "UrgencyUpdated",
      "type": "event"
    },
    {
      "constant": true,
      "inputs": [],
      "name": "admin",
      "outputs": [
        {
          "internalType": "address",
          "name": "",
          "type": "address"
        }
      ],
      "payable": false,
      "stateMutability": "view",
      "type": "function"
    },
    {
      "constant": true,
      "inputs": [],
      "name": "donorCount",
      "outputs": [
        {
          "internalType": "uint256",
          "name": "",
          "type": "uint256"
        }
      ],
      "payable": false,
      "stateMutability": "view",
      "type": "function"
    },
    {
      "constant": true,
      "inputs": [],
      "name": "donorStorageAddress",
      "outputs": [
        {
          "internalType": "address",
          "name": "",
          "type": "address"
        }
      ],
      "payable": false,
      "stateMutability": "view",
      "type": "function"
    },
    {
      "constant": true,
      "inputs": [
        {
          "internalType": "address",
          "name": "",
          "type": "address"
        },
        {
          "internalType": "uint256",
          "name": "",
          "type": "uint256"
        }
      ],
      "name": "donors",
      "outputs": [
        {
          "internalType": "uint256",
          "name": "id",
          "type": "uint256"
        },
        {
          "internalType": "string",
          "name": "name",
          "type": "string"
        },
        {
          "internalType": "uint256",
          "name": "age",
          "type": "uint256"
        },
        {
          "internalType": "string",
          "name": "bloodType",
          "type": "string"
        },
        {
          "internalType": "string",
          "name": "organ",
          "type": "string"
        },
        {
          "internalType": "string",
          "name": "tissueType",
          "type": "string"
        },
        {
          "internalType": "bool",
          "name": "isAvailable",
          "type": "bool"
        }
      ],
      "payable": false,
      "stateMutability": "view",
      "type": "function"
    },
    {
      "constant": true,
      "inputs": [
        {
          "internalType": "uint256",
          "name": "",
          "type": "uint256"
        }
      ],
      "name": "hospitalAddresses",
      "outputs": [
        {
          "internalType": "address",
          "name": "",
          "type": "address"
        }
      ],
      "payable": false,
      "stateMutability": "view",
      "type": "function"
    },
    {
      "constant": true,
      "inputs": [],
      "name": "hospitalCount",
      "outputs": [
        {
          "internalType": "uint256",
          "name": "",
          "type": "uint256"
        }
      ],
      "payable": false,
      "stateMutability": "view",
      "type": "function"
    },
    {
      "constant": true,
      "inputs": [
        {
          "internalType": "address",
          "name": "",
          "type": "address"
        }
      ],
      "name": "hospitals",
      "outputs": [
        {
          "internalType": "uint256",
          "name": "id",
          "type": "uint256"
        },
        {
          "internalType": "string",
          "name": "name",
          "type": "string"
        },
        {
          "internalType": "string",
          "name": "location",
          "type": "string"
        },
        {
          "internalType": "string",
          "name": "contactInfo",
          "type": "string"
        },
        {
          "internalType": "bool",
          "name": "isApproved",
          "type": "bool"
        }
      ],
      "payable": false,
      "stateMutability": "view",
      "type": "function"
    },
    {
      "constant": true,
      "inputs": [],
      "name": "recipientCount",
      "outputs": [
        {
          "internalType": "uint256",
          "name": "",
          "type": "uint256"
        }
      ],
      "payable": false,
      "stateMutability": "view",
      "type": "function"
    },
    {
      "constant": true,
      "inputs": [],
      "name": "recipientStorageAddress",
      "outputs": [
        {
          "internalType": "address",
          "name": "",
          "type": "address"
        }
      ],
      "payable": false,
      "stateMutability": "view",
      "type": "function"
    },
    {
      "constant": true,
      "inputs": [
        {
          "internalType": "address",
          "name": "",
          "type": "address"
        },
        {
          "internalType": "uint256",
          "name": "",
          "type": "uint256"
        }
      ],
      "name": "recipients",
      "outputs": [
        {
          "internalType": "uint256",
          "name": "id",
          "type": "uint256"
        },
        {
          "internalType": "string",
          "name": "name",
          "type": "string"
        },
        {
          "internalType": "uint256",
          "name": "age",
          "type": "uint256"
        },
        {
          "internalType": "string",
          "name": "bloodType",
          "type": "string"
        },
        {
          "internalType": "string",
          "name": "neededOrgan",
          "type": "string"
        },
        {
          "internalType": "string",
          "name": "tissueType",
          "type": "string"
        },
        {
          "internalType": "uint256",
          "name": "urgencyLevel",
          "type": "uint256"
        },
        {
          "internalType": "bool",
          "name": "hasReceived",
          "type": "bool"
        }
      ],
      "payable": false,
      "stateMutability": "view",
      "type": "function"
    },
    {
      "constant": false,
      "inputs": [
        {
          "internalType": "address",
          "name": "_hospitalAddress",
          "type": "address"
        },
        {
          "internalType": "string",
          "name": "_name",
          "type": "string"
        },
        {
          "internalType": "string",
          "name": "_location",
          "type": "string"
        },
        {
          "internalType": "string",
          "name": "_contactInfo",
          "type": "string"
        }
      ],
      "name": "registerHospital",
      "outputs": [],
      "payable": false,
      "stateMutability": "nonpayable",
      "type": "function"
    },
    {
      "constant": false,
      "inputs": [
        {
          "internalType": "string",
          "name": "_name",
          "type": "string"
        },
        {
          "internalType": "uint256",
          "name": "_age",
          "type": "uint256"
        },
        {
          "internalType": "string",
          "name": "_bloodType",
          "type": "string"
        },
        {
          "internalType": "string",
          "name": "_organ",
          "type": "string"
        },
        {
          "internalType": "string",
          "name": "_tissueType",
          "type": "string"
        }
      ],
      "name": "registerDonor",
      "outputs": [],
      "payable": false,
      "stateMutability": "nonpayable",
      "type": "function"
    },
    {
      "constant": false,
      "inputs": [
        {
          "internalType": "string",
          "name": "_name",
          "type": "string"
        },
        {
          "internalType": "uint256",
          "name": "_age",
          "type": "uint256"
        },
        {
          "internalType": "string",
          "name": "_bloodType",
          "type": "string"
        },
        {
          "internalType": "string",
          "name": "_neededOrgan",
          "type": "string"
        },
        {
          "internalType": "string",
          "name": "_tissueType",
          "type": "string"
        },
        {
          "internalType": "uint256",
          "name": "_urgencyLevel",
          "type": "uint256"
        }
      ],
      "name": "registerRecipient",
      "outputs": [],
      "payable": false,
      "stateMutability": "nonpayable",
      "type": "function"
    },
    {
      "constant": false,
      "inputs": [
        {
          "internalType": "uint256",
          "name": "donorIndex",
          "type": "uint256"
        },
        {
          "internalType": "uint256",
          "name": "recipientIndex",
          "type": "uint256"
        }
      ],
      "name": "matchOrgan",
      "outputs": [],
      "payable": false,
      "stateMutability": "nonpayable",
      "type": "function"
    },
    {
      "constant": false,
      "inputs": [
        {
          "internalType": "uint256",
          "name": "donorIndex",
          "type": "uint256"
        },
        {
          "internalType": "uint256",
          "name": "recipientIndex",
          "type": "uint256"
        }
      ],
      "name": "confirmOrganRetrieval",
      "outputs": [],
      "payable": false,
      "stateMutability": "nonpayable",
      "type": "function"
    },
    {
      "constant": false,
      "inputs": [
        {
          "internalType": "uint256",
          "name": "recipientIndex",
          "type": "uint256"
        },
        {
          "internalType": "uint256",
          "name": "_newUrgency",
          "type": "uint256"
        }
      ],
      "name": "updateUrgencyLevel",
      "outputs": [],
      "payable": false,
      "stateMutability": "nonpayable",
      "type": "function"
    },
    {
      "constant": true,
      "inputs": [],
      "name": "getDonorList",
      "outputs": [
        {
          "components": [
            {
              "internalType": "uint256",
              "name": "id",
              "type": "uint256"
            },
            {
              "internalType": "string",
              "name": "name",
              "type": "string"
            },
            {
              "internalType": "uint256",
              "name": "age",
              "type": "uint256"
            },
            {
              "internalType": "string",
              "name": "bloodType",
              "type": "string"
            },
            {
              "internalType": "string",
              "name": "organ",
              "type": "string"
            },
            {
              "internalType": "string",
              "name": "tissueType",
              "type": "string"
            },
            {
              "internalType": "bool",
              "name": "isAvailable",
              "type": "bool"
            }
          ],
          "internalType": "struct OrganDonation.Donor[]",
          "name": "",
          "type": "tuple[]"
        }
      ],
      "payable": false,
      "stateMutability": "view",
      "type": "function"
    },
    {
      "constant": true,
      "inputs": [],
      "name": "getRecipientList",
      "outputs": [
        {
          "components": [
            {
              "internalType": "uint256",
              "name": "id",
              "type": "uint256"
            },
            {
              "internalType": "string",
              "name": "name",
              "type": "string"
            },
            {
              "internalType": "uint256",
              "name": "age",
              "type": "uint256"
            },
            {
              "internalType": "string",
              "name": "bloodType",
              "type": "string"
            },
            {
              "internalType": "string",
              "name": "neededOrgan",
              "type": "string"
            },
            {
              "internalType": "string",
              "name": "tissueType",
              "type": "string"
            },
            {
              "internalType": "uint256",
              "name": "urgencyLevel",
              "type": "uint256"
            },
            {
              "internalType": "bool",
              "name": "hasReceived",
              "type": "bool"
            }
          ],
          "internalType": "struct OrganDonation.Recipient[]",
          "name": "",
          "type": "tuple[]"
        }
      ],
      "payable": false,
      "stateMutability": "view",
      "type": "function"
    },
    {
      "constant": true,
      "inputs": [],
      "name": "getHospitalList",
      "outputs": [
        {
          "internalType": "address[]",
          "name": "",
          "type": "address[]"
        }
      ],
      "payable": false,
      "stateMutability": "view",
      "type": "function"
    }
  ],
  "bytecode": "0x60806040523480156200001157600080fd5b5060405162002c4938038062002c4983398101604081905262000034916200008a565b600080546001600160a01b039485166001600160a01b0319918216179091556008805493851693821693909317909255600980549190931691161790556200010a565b80516200008481620000f0565b92915050565b600080600060608486031215620000a057600080fd5b6000620000ae868662000077565b9350506020620000c18682870162000077565b9250506040620000d48682870162000077565b9150509250925092565b60006001600160a01b03821662000084565b620000fb81620000de565b81146200010757600080fd5b50565b612b2f806200011a6000396000f3fe608060405234801561001057600080fd5b50600436106101215760003560e01c806398494879116100ad578063ea8b902511610071578063ea8b902514610235578063f093cf801461025c578063f4fd379e14610280578063f851a44014610295578063ffe34d0f1461029d57610121565b806398494879146101d75780639b56f5f0146101ec578063c407670f14610212578063c40b5c5b1461021a578063d9ad23001461022257610121565b8063350dadb7116100f4578063350dadb71461017f57806348cfc779146101875780635e3d0aff1461019c5780636933e414146101af57806382355714146101c457610121565b806320b6559f1461012657806322eabb8e1461013b5780632eca3a5914610159578063325022781461016c575b600080fd5b610139610134366004611bd4565b6102b0565b005b610143610469565b604051610150919061281a565b60405180910390f35b610139610167366004611e84565b61046f565b61013961017a366004611cb4565b6105b8565b610143610723565b61018f610729565b6040516101509190612728565b6101396101aa366004611d84565b610a55565b6101b7610c02565b6040516101509190612717565b6101396101d2366004611e84565b610c64565b6101df610d91565b6040516101509190612602565b6101ff6101fa366004611c7a565b610da0565b60405161015097969594939291906128d1565b610143611024565b6101df61102a565b6101df610230366004611e66565b611039565b610248610243366004611c7a565b611060565b604051610150989796959493929190612955565b61026f61026a366004611bae565b6112eb565b60405161015095949392919061287a565b6102886114bd565b6040516101509190612739565b6101df6117ed565b6101396102ab366004611e84565b6117fc565b6000546001600160a01b031633146102e35760405162461bcd60e51b81526004016102da906127ea565b60405180910390fd5b6001600160a01b0384166000908152600460208190526040909120015460ff16156103205760405162461bcd60e51b81526004016102da9061280a565b6001805481018082556040805160a081018252918252602080830187815283830187905260608401869052608084018590526001600160a01b03891660009081526004835292909220835181559151805193949293610386938501929190910190611aa6565b50604082015180516103a2916002840191602090910190611aa6565b50606082015180516103be916003840191602090910190611aa6565b50608091909101516004909101805460ff191691151591909117905560078054600181810183556000929092527fa66cc928b5edb82af9bd49922954155ab7b0942694bea4ce44661d9a8736c6880180546001600160a01b0319166001600160a01b038716179055546040517f27fab8df89980a55b03cbb2668827e7ca0b5c0d3213ee1cd5ca65e84119b9b6b9161045b91869086908690612828565b60405180910390a150505050565b60035481565b336000908152600460208190526040909120015460ff166104a25760405162461bcd60e51b81526004016102da906127da565b6009546001600160a01b031660009081526006602052604090205481106104db5760405162461bcd60e51b81526004016102da906127ba565b6008546001600160a01b0316600090815260056020526040902080548390811061050157fe5b600091825260209091206006600790920201015460ff16156105355760405162461bcd60e51b81526004016102da9061276a565b6008546009546001600160a01b03918216600081815260056020526040902080547f0884ea2d9681874ac9f8b4e3c285df5aea58d388cd03eb34bda66c6795ec961a9492938793169186918490811061058a57fe5b90600052602060002090600702016004016040516105ac959493929190612690565b60405180910390a15050565b6008546001600160a01b031633146105e25760405162461bcd60e51b81526004016102da906127ca565b60028054600190810191829055336000908152600560209081526040808320815160e0810183529586528583018b81529186018a9052606086018990526080860188905260a0860187905260c086018590528054808601808355918552938390208651600790950201938455905180519195946106659390850192910190611aa6565b50604082015160028201556060820151805161068b916003840191602090910190611aa6565b50608082015180516106a7916004840191602090910190611aa6565b5060a082015180516106c3916005840191602090910190611aa6565b5060c091909101516006909101805460ff1916911515919091179055506040517f7cefa9d45415496742c108166cfd8e4bae2f2089a47b4b375e65d407bdbdace59061071490339088908690612610565b60405180910390a15050505050565b60015481565b336000908152600460208190526040909120015460609060ff1661075f5760405162461bcd60e51b81526004016102da906127da565b6008546001600160a01b0316600090815260056020908152604080832080548251818502810185019093528083529193909284015b82821015610a4b57838290600052602060002090600702016040518060e001604052908160008201548152602001600182018054600181600116156101000203166002900480601f01602080910402602001604051908101604052809291908181526020018280546001816001161561010002031660029004801561085a5780601f1061082f5761010080835404028352916020019161085a565b820191906000526020600020905b81548152906001019060200180831161083d57829003601f168201915b505050918352505060028281015460208084019190915260038401805460408051601f600019610100600186161502019093169590950491820184900484028501840181528185529094019390918301828280156108f95780601f106108ce576101008083540402835291602001916108f9565b820191906000526020600020905b8154815290600101906020018083116108dc57829003601f168201915b505050918352505060048201805460408051602060026001851615610100026000190190941693909304601f810184900484028201840190925281815293820193929183018282801561098d5780601f106109625761010080835404028352916020019161098d565b820191906000526020600020905b81548152906001019060200180831161097057829003601f168201915b505050918352505060058201805460408051602060026001851615610100026000190190941693909304601f8101849004840282018401909252818152938201939291830182828015610a215780601f106109f657610100808354040283529160200191610a21565b820191906000526020600020905b815481529060010190602001808311610a0457829003601f168201915b50505091835250506006919091015460ff1615156020918201529082526001929092019101610794565b5050505090505b90565b6009546001600160a01b03163314610a7f5760405162461bcd60e51b81526004016102da906127aa565b60018110158015610a91575060058111155b610aad5760405162461bcd60e51b81526004016102da9061279a565b600380546001908101918290553360009081526006602090815260408083208151610100810183529586528583018c81529186018b9052606086018a90526080860189905260a0860188905260c0860187905260e08601849052805480860180835591855293839020865160089095020193845590518051919594610b389390850192910190611aa6565b506040820151600282015560608201518051610b5e916003840191602090910190611aa6565b5060808201518051610b7a916004840191602090910190611aa6565b5060a08201518051610b96916005840191602090910190611aa6565b5060c0820151600682015560e0909101516007909101805460ff1916911515919091179055506040517fd4f7c70059863460c4dff216b5d01688ec8a4135f4f229f58117db8f26a18b6a90610bf290339089908790869061264d565b60405180910390a1505050505050565b60606007805480602002602001604051908101604052809291908181526020018280548015610c5a57602002820191906000526020600020905b81546001600160a01b03168152600190910190602001808311610c3c575b5050505050905090565b6009546001600160a01b03166000908152600660205260409020548210610c9d5760405162461bcd60e51b81526004016102da906127ba565b60018110158015610caf575060058111155b610ccb5760405162461bcd60e51b81526004016102da9061279a565b6009546001600160a01b03166000908152600660205260408120805484908110610cf157fe5b6000918252602080832060066008909302018201546009546001600160a01b0316845291905260409091208054919250839185908110610d2d57fe5b60009182526020909120600660089092020101556009546040517fcabed8adf95a09d54edfc2ee514062676a0bd820ab4d440bdd4462967581df0c91610d84916001600160a01b03909116908690859087906126e2565b60405180910390a1505050565b6008546001600160a01b031681565b60056020528160005260406000208181548110610db957fe5b60009182526020918290206007919091020180546001808301805460408051600294831615610100026000190190921693909304601f81018790048702820187019093528281529296509294509092830182828015610e595780601f10610e2e57610100808354040283529160200191610e59565b820191906000526020600020905b815481529060010190602001808311610e3c57829003601f168201915b505050506002838101546003850180546040805160206001841615610100026000190190931695909504601f810183900483028601830190915280855295969295929450909190830182828015610ef15780601f10610ec657610100808354040283529160200191610ef1565b820191906000526020600020905b815481529060010190602001808311610ed457829003601f168201915b5050505060048301805460408051602060026001851615610100026000190190941693909304601f8101849004840282018401909252818152949594935090830182828015610f815780601f10610f5657610100808354040283529160200191610f81565b820191906000526020600020905b815481529060010190602001808311610f6457829003601f168201915b5050505060058301805460408051602060026001851615610100026000190190941693909304601f81018490048402820184019092528181529495949350908301828280156110115780601f10610fe657610100808354040283529160200191611011565b820191906000526020600020905b815481529060010190602001808311610ff457829003601f168201915b5050506006909301549192505060ff1687565b60025481565b6009546001600160a01b031681565b6007818154811061104657fe5b6000918252602090912001546001600160a01b0316905081565b6006602052816000526040600020818154811061107957fe5b60009182526020918290206008919091020180546001808301805460408051600294831615610100026000190190921693909304601f810187900487028201870190935282815292965092945090928301828280156111195780601f106110ee57610100808354040283529160200191611119565b820191906000526020600020905b8154815290600101906020018083116110fc57829003601f168201915b505050506002838101546003850180546040805160206001841615610100026000190190931695909504601f8101839004830286018301909152808552959692959294509091908301828280156111b15780601f10611186576101008083540402835291602001916111b1565b820191906000526020600020905b81548152906001019060200180831161119457829003601f168201915b5050505060048301805460408051602060026001851615610100026000190190941693909304601f81018490048402820184019092528181529495949350908301828280156112415780601f1061121657610100808354040283529160200191611241565b820191906000526020600020905b81548152906001019060200180831161122457829003601f168201915b5050505060058301805460408051602060026001851615610100026000190190941693909304601f81018490048402820184019092528181529495949350908301828280156112d15780601f106112a6576101008083540402835291602001916112d1565b820191906000526020600020905b8154815290600101906020018083116112b457829003601f168201915b50505050600683015460079093015491929160ff16905088565b6004602090815260009182526040918290208054600180830180548651600293821615610100026000190190911692909204601f8101869004860283018601909652858252919492939092908301828280156113885780601f1061135d57610100808354040283529160200191611388565b820191906000526020600020905b81548152906001019060200180831161136b57829003601f168201915b50505060028085018054604080516020601f600019610100600187161502019094169590950492830185900485028101850190915281815295969594509092509083018282801561141a5780601f106113ef5761010080835404028352916020019161141a565b820191906000526020600020905b8154815290600101906020018083116113fd57829003601f168201915b5050505060038301805460408051602060026001851615610100026000190190941693909304601f81018490048402820184019092528181529495949350908301828280156114aa5780601f1061147f576101008083540402835291602001916114aa565b820191906000526020600020905b81548152906001019060200180831161148d57829003601f168201915b5050506004909301549192505060ff1685565b336000908152600460208190526040909120015460609060ff166114f35760405162461bcd60e51b81526004016102da906127da565b6009546001600160a01b0316600090815260066020908152604080832080548251818502810185019093528083529193909284015b82821015610a4b57838290600052602060002090600802016040518061010001604052908160008201548152602001600182018054600181600116156101000203166002900480601f0160208091040260200160405190810160405280929190818152602001828054600181600116156101000203166002900480156115ef5780601f106115c4576101008083540402835291602001916115ef565b820191906000526020600020905b8154815290600101906020018083116115d257829003601f168201915b505050918352505060028281015460208084019190915260038401805460408051601f6000196101006001861615020190931695909504918201849004840285018401815281855290940193909183018282801561168e5780601f106116635761010080835404028352916020019161168e565b820191906000526020600020905b81548152906001019060200180831161167157829003601f168201915b505050918352505060048201805460408051602060026001851615610100026000190190941693909304601f81018490048402820184019092528181529382019392918301828280156117225780601f106116f757610100808354040283529160200191611722565b820191906000526020600020905b81548152906001019060200180831161170557829003601f168201915b505050918352505060058201805460408051602060026001851615610100026000190190941693909304601f81018490048402820184019092528181529382019392918301828280156117b65780601f1061178b576101008083540402835291602001916117b6565b820191906000526020600020905b81548152906001019060200180831161179957829003601f168201915b5050509183525050600682015460208083019190915260079092015460ff1615156040909101529082526001929092019101611528565b6000546001600160a01b031681565b336000908152600460208190526040909120015460ff1661182f5760405162461bcd60e51b81526004016102da906127da565b6008546001600160a01b031660009081526005602052604090205482106118685760405162461bcd60e51b81526004016102da9061274a565b6009546001600160a01b031660009081526006602052604090205481106118a15760405162461bcd60e51b81526004016102da906127ba565b6008546001600160a01b031660009081526005602052604081208054849081106118c757fe5b600091825260208083206009546001600160a01b0316845260069091526040832080546007909302909101935090849081106118ff57fe5b600091825260209091206006840154600890920201915060ff166119355760405162461bcd60e51b81526004016102da906127fa565b600781015460ff161561195a5760405162461bcd60e51b81526004016102da9061275a565b8060040160405160200161196e91906125f6565b604051602081830303815290604052805190602001208260040160405160200161199891906125f6565b60405160208183030381529060405280519060200120146119cb5760405162461bcd60e51b81526004016102da9061277a565b806005016040516020016119df91906125f6565b6040516020818303038152906040528051906020012082600501604051602001611a0991906125f6565b6040516020818303038152906040528051906020012014611a3c5760405162461bcd60e51b81526004016102da9061278a565b60068201805460ff1990811690915560078201805490911660011790556008546009546040517fdb332ceea72f9f7efb74209daec470ce07aafc629fd25bab85f9070e593f0ebd9261045b926001600160a01b039182169289929091169088906004890190612690565b828054600181600116156101000203166002900490600052602060002090601f016020900481019282601f10611ae757805160ff1916838001178555611b14565b82800160010185558215611b14579182015b82811115611b14578251825591602001919060010190611af9565b50611b20929150611b24565b5090565b610a5291905b80821115611b205760008155600101611b2a565b8035611b4981612acc565b92915050565b600082601f830112611b6057600080fd5b8135611b73611b6e82612a0e565b6129e8565b91508082526020830160208301858383011115611b8f57600080fd5b611b9a838284612a86565b50505092915050565b8035611b4981612ae3565b600060208284031215611bc057600080fd5b6000611bcc8484611b3e565b949350505050565b60008060008060808587031215611bea57600080fd5b6000611bf68787611b3e565b94505060208501356001600160401b03811115611c1257600080fd5b611c1e87828801611b4f565b93505060408501356001600160401b03811115611c3a57600080fd5b611c4687828801611b4f565b92505060608501356001600160401b03811115611c6257600080fd5b611c6e87828801611b4f565b91505092959194509250565b60008060408385031215611c8d57600080fd5b6000611c998585611b3e565b9250506020611caa85828601611ba3565b9150509250929050565b600080600080600060a08688031215611ccc57600080fd5b85356001600160401b03811115611ce257600080fd5b611cee88828901611b4f565b9550506020611cff88828901611ba3565b94505060408601356001600160401b03811115611d1b57600080fd5b611d2788828901611b4f565b93505060608601356001600160401b03811115611d4357600080fd5b611d4f88828901611b4f565b92505060808601356001600160401b03811115611d6b57600080fd5b611d7788828901611b4f565b9150509295509295909350565b60008060008060008060c08789031215611d9d57600080fd5b86356001600160401b03811115611db357600080fd5b611dbf89828a01611b4f565b9650506020611dd089828a01611ba3565b95505060408701356001600160401b03811115611dec57600080fd5b611df889828a01611b4f565b94505060608701356001600160401b03811115611e1457600080fd5b611e2089828a01611b4f565b93505060808701356001600160401b03811115611e3c57600080fd5b611e4889828a01611b4f565b92505060a0611e5989828a01611ba3565b9150509295509295509295565b600060208284031215611e7857600080fd5b6000611bcc8484611ba3565b60008060408385031215611e9757600080fd5b6000611c998585611ba3565b6000611eaf8383611ee5565b505060200190565b6000611ec3838361248d565b9392505050565b6000611ec38383612537565b611edf81612a75565b82525050565b611edf81612a59565b6000611ef982612a47565b611f038185612a4b565b9350611f0e83612a35565b8060005b83811015611f3c578151611f268882611ea3565b9750611f3183612a35565b925050600101611f12565b509495945050505050565b6000611f5282612a47565b611f5c8185612a4b565b935083602082028501611f6e85612a35565b8060005b85811015611fa85784840389528151611f8b8582611eb7565b9450611f9683612a35565b60209a909a0199925050600101611f72565b5091979650505050505050565b6000611fc082612a47565b611fca8185612a4b565b935083602082028501611fdc85612a35565b8060005b85811015611fa85784840389528151611ff98582611eca565b945061200483612a35565b60209a909a0199925050600101611fe0565b611edf81612a64565b600061202a82612a47565b6120348185612a4b565b9350612044818560208601612a92565b61204d81612ac2565b9093019392505050565b600081546001811660008114612074576001811461209a576120d9565b607f60028304166120858187612a4b565b60ff19841681529550506020850192506120d9565b600282046120a88187612a4b565b95506120b385612a3b565b60005b828110156120d2578154888201526001909101906020016120b6565b8701945050505b505092915050565b6000815460018116600081146120fe5760018114612121576120d9565b607f600283041661210f8187612a54565b60ff19841681529550850192506120d9565b6002820461212f8187612a54565b955061213a85612a3b565b60005b828110156121595781548882015260019091019060200161213d565b5050909401949350505050565b6000612173601383612a4b565b72092dcecc2d8d2c840c8dedcdee440d2dcc8caf606b1b815260200192915050565b60006121a2602383612a4b565b7f526563697069656e7420616c726561647920726563656976656420616e206f7281526233b0b760e91b602082015260400192915050565b60006121e7601583612a4b565b7413dc99d85b881b9bdd081e595d081b585d18da1959605a1b815260200192915050565b6000612218601383612a4b565b7209ee4cec2dc40e8f2e0ca40dad2e6dac2e8c6d606b1b815260200192915050565b6000612247601483612a4b565b730a8d2e6e6eaca40e8f2e0ca40dad2e6dac2e8c6d60631b815260200192915050565b6000612277602583612a4b565b7f557267656e6379206c6576656c206d757374206265206265747765656e203120815264616e64203560d81b602082015260400192915050565b60006122be603983612a4b565b7f4f6e6c792064657369676e6174656420726563697069656e74206163636f756e81527f742063616e20726567697374657220726563697069656e747300000000000000602082015260400192915050565b600061231d601783612a4b565b7f496e76616c696420726563697069656e7420696e646578000000000000000000815260200192915050565b6000612356603183612a4b565b7f4f6e6c792064657369676e6174656420646f6e6f72206163636f756e742063618152706e20726567697374657220646f6e6f727360781b602082015260400192915050565b60006123a9602383612a4b565b7f4f6e6c7920686f73706974616c732063616e206163636573732074686973206481526261746160e81b602082015260400192915050565b60006123ee602283612a4b565b7f4f6e6c792061646d696e2063616e20706572666f726d2074686973206163746981526137b760f11b602082015260400192915050565b6000612432601383612a4b565b72446f6e6f72206e6f7420617661696c61626c6560681b815260200192915050565b6000612461601b83612a4b565b7f486f73706974616c20616c726561647920726567697374657265640000000000815260200192915050565b805160009060e08401906124a185826125ed565b50602083015184820360208601526124b9828261201f565b91505060408301516124ce60408601826125ed565b50606083015184820360608601526124e6828261201f565b91505060808301518482036080860152612500828261201f565b91505060a083015184820360a086015261251a828261201f565b91505060c083015161252f60c0860182612016565b509392505050565b805160009061010084019061254c85826125ed565b5060208301518482036020860152612564828261201f565b915050604083015161257960408601826125ed565b5060608301518482036060860152612591828261201f565b915050608083015184820360808601526125ab828261201f565b91505060a083015184820360a08601526125c5828261201f565b91505060c08301516125da60c08601826125ed565b5060e083015161252f60e0860182612016565b611edf81610a52565b6000611ec382846120e1565b60208101611b498284611ee5565b6060810161261e8286611ed6565b8181036020830152612630818561201f565b90508181036040830152612644818461201f565b95945050505050565b6080810161265b8287611ed6565b818103602083015261266d818661201f565b90508181036040830152612681818561201f565b905061264460608301846125ed565b60a0810161269e8288611ee5565b6126ab60208301876125ed565b6126b86040830186611ee5565b6126c560608301856125ed565b81810360808301526126d78184612057565b979650505050505050565b608081016126f08287611ee5565b6126fd60208301866125ed565b61270a60408301856125ed565b61264460608301846125ed565b60208082528101611ec38184611eee565b60208082528101611ec38184611f47565b60208082528101611ec38184611fb5565b60208082528101611b4981612166565b60208082528101611b4981612195565b60208082528101611b49816121da565b60208082528101611b498161220b565b60208082528101611b498161223a565b60208082528101611b498161226a565b60208082528101611b49816122b1565b60208082528101611b4981612310565b60208082528101611b4981612349565b60208082528101611b498161239c565b60208082528101611b49816123e1565b60208082528101611b4981612425565b60208082528101611b4981612454565b60208101611b4982846125ed565b6080810161283682876125ed565b8181036020830152612848818661201f565b9050818103604083015261285c818561201f565b90508181036060830152612870818461201f565b9695505050505050565b60a0810161288882886125ed565b818103602083015261289a818761201f565b905081810360408301526128ae818661201f565b905081810360608301526128c2818561201f565b90506128706080830184612016565b60e081016128df828a6125ed565b81810360208301526128f1818961201f565b905061290060408301886125ed565b8181036060830152612912818761201f565b90508181036080830152612926818661201f565b905081810360a083015261293a818561201f565b905061294960c0830184612016565b98975050505050505050565b6101008101612964828b6125ed565b8181036020830152612976818a61201f565b905061298560408301896125ed565b8181036060830152612997818861201f565b905081810360808301526129ab818761201f565b905081810360a08301526129bf818661201f565b90506129ce60c08301856125ed565b6129db60e0830184612016565b9998505050505050505050565b6040518181016001600160401b0381118282101715612a0657600080fd5b604052919050565b60006001600160401b03821115612a2457600080fd5b506020601f91909101601f19160190565b60200190565b60009081526020902090565b5190565b90815260200190565b919050565b6000611b4982612a69565b151590565b6001600160a01b031690565b6000611b49826000611b4982612a59565b82818337506000910152565b60005b83811015612aad578181015183820152602001612a95565b83811115612abc576000848401525b50505050565b601f01601f191690565b612ad581612a59565b8114612ae057600080fd5b50565b612ad581610a5256fea365627a7a723158202675d7bf4d2a5217ada5ccf2e9204482e3576865477f4a80e645914586f10a1a6c6578706572696d656e74616cf564736f6c63430005100040",
  "source": "// SPDX-License-Identifier: MIT\r\npragma solidity >=0.4.22 <0.7.0;\r\npragma experimental ABIEncoderV2;\r\n\r\ncontract OrganDonation {\r\n    struct Donor {\r\n        uint id;\r\n        string name;\r\n        uint age;\r\n        string bloodType;\r\n        string organ;\r\n        string tissueType;\r\n        bool isAvailable;\r\n    }\r\n\r\n    struct Recipient {\r\n        uint id;\r\n        string name;\r\n        uint age;\r\n        string bloodType;\r\n        string neededOrgan;\r\n        string tissueType;\r\n        uint urgencyLevel;\r\n        bool hasReceived;\r\n    }\r\n\r\n    struct Hospital {\r\n        uint id;\r\n        string name;\r\n        string location;\r\n        string contactInfo;\r\n        bool isApproved;\r\n    }\r\n\r\n    address public admin;\r\n    uint public hospitalCount;\r\n    uint public donorCount;\r\n    uint public recipientCount;\r\n\r\n    mapping(address => Hospital) public hospitals;\r\n    mapping(address => Donor[]) public donors;        // Now allows multiple donors per address\r\n    mapping(address => Recipient[]) public recipients; // Now allows multiple recipients per address\r\n    address[] public hospitalAddresses;\r\n    address public donorStorageAddress;\r\n    address public recipientStorageAddress;\r\n\r\n    event HospitalRegistered(uint hospitalId, string name, string location, string contactInfo);\r\n    event DonorRegistered(address donorAccount, string name, string organ);\r\n    event RecipientRegistered(address recipientAccount, string name, string neededOrgan, uint urgencyLevel);\r\n    event OrganMatched(address donorAccount, uint donorIndex, address recipientAccount, uint recipientIndex, string organ);\r\n    event OrganRetrieved(address donorAccount, uint donorIndex, address recipientAccount, uint recipientIndex, string organ);\r\n    event UrgencyUpdated(address recipientAccount, uint recipientIndex, uint oldUrgency, uint newUrgency);\r\n\r\n    modifier onlyAdmin() {\r\n        require(msg.sender == admin, \"Only admin can perform this action\");\r\n        _;\r\n    }\r\n\r\n    modifier onlyHospital() {\r\n        require(hospitals[msg.sender].isApproved, \"Only hospitals can access this data\");\r\n        _;\r\n    }\r\n\r\n    constructor(address _admin, address _donorStorage, address _recipientStorage) public {\r\n        admin = _admin;\r\n        donorStorageAddress = _donorStorage;\r\n        recipientStorageAddress = _recipientStorage;\r\n    }\r\n\r\n    function registerHospital(address _hospitalAddress, string memory _name, string memory _location, string memory _contactInfo) public onlyAdmin {\r\n        require(!hospitals[_hospitalAddress].isApproved, \"Hospital already registered\");\r\n\r\n        hospitalCount++;\r\n        hospitals[_hospitalAddress] = Hospital(hospitalCount, _name, _location, _contactInfo, true);\r\n        hospitalAddresses.push(_hospitalAddress);\r\n\r\n        emit HospitalRegistered(hospitalCount, _name, _location, _contactInfo);\r\n    }\r\n\r\n    function registerDonor(string memory _name, uint _age, string memory _bloodType, string memory _organ, string memory _tissueType) public {\r\n        require(msg.sender == donorStorageAddress, \"Only designated donor account can register donors\");\r\n\r\n        donorCount++;\r\n        donors[msg.sender].push(Donor(donorCount, _name, _age, _bloodType, _organ, _tissueType, true));\r\n\r\n        emit DonorRegistered(msg.sender, _name, _organ);\r\n    }\r\n\r\n    function registerRecipient(string memory _name, uint _age, string memory _bloodType, string memory _neededOrgan, string memory _tissueType, uint _urgencyLevel) public {\r\n        require(msg.sender == recipientStorageAddress, \"Only designated recipient account can register recipients\");\r\n        require(_urgencyLevel >= 1 && _urgencyLevel <= 5, \"Urgency level must be between 1 and 5\");\r\n\r\n        recipientCount++;\r\n        recipients[msg.sender].push(Recipient(recipientCount, _name, _age, _bloodType, _neededOrgan, _tissueType, _urgencyLevel, false));\r\n\r\n        emit RecipientRegistered(msg.sender, _name, _neededOrgan, _urgencyLevel);\r\n    }\r\n\r\n    function matchOrgan(uint donorIndex, uint recipientIndex) public onlyHospital {\r\n        require(donorIndex < donors[donorStorageAddress].length, \"Invalid donor index\");\r\n        require(recipientIndex < recipients[recipientStorageAddress].length, \"Invalid recipient index\");\r\n\r\n        Donor storage donor = donors[donorStorageAddress][donorIndex];\r\n        Recipient storage recipient = recipients[recipientStorageAddress][recipientIndex];\r\n\r\n        require(donor.isAvailable, \"Donor not available\");\r\n        require(!recipient.hasReceived, \"Recipient already received an organ\");\r\n        require(\r\n            keccak256(abi.encodePacked(donor.organ)) == keccak256(abi.encodePacked(recipient.neededOrgan)),\r\n            \"Organ type mismatch\"\r\n        );\r\n        require(\r\n            keccak256(abi.encodePacked(donor.tissueType)) == keccak256(abi.encodePacked(recipient.tissueType)),\r\n            \"Tissue type mismatch\"\r\n        );\r\n\r\n        donor.isAvailable = false;\r\n        recipient.hasReceived = true;\r\n\r\n        emit OrganMatched(donorStorageAddress, donorIndex, recipientStorageAddress, recipientIndex, donor.organ);\r\n    }\r\n\r\n    function confirmOrganRetrieval(uint donorIndex, uint recipientIndex) public onlyHospital {\r\n        require(recipientIndex < recipients[recipientStorageAddress].length, \"Invalid recipient index\");\r\n        require(donors[donorStorageAddress][donorIndex].isAvailable == false, \"Organ not yet matched\");\r\n\r\n        emit OrganRetrieved(donorStorageAddress, donorIndex, recipientStorageAddress, recipientIndex, donors[donorStorageAddress][donorIndex].organ);\r\n    }\r\n\r\n    function updateUrgencyLevel(uint recipientIndex, uint _newUrgency) public {\r\n        require(recipientIndex < recipients[recipientStorageAddress].length, \"Invalid recipient index\");\r\n        require(_newUrgency >= 1 && _newUrgency <= 5, \"Urgency level must be between 1 and 5\");\r\n\r\n        uint oldUrgency = recipients[recipientStorageAddress][recipientIndex].urgencyLevel;\r\n        recipients[recipientStorageAddress][recipientIndex].urgencyLevel = _newUrgency;\r\n\r\n        emit UrgencyUpdated(recipientStorageAddress, recipientIndex, oldUrgency, _newUrgency);\r\n    }\r\n\r\n    function getDonorList() public view onlyHospital returns (Donor[] memory) {\r\n        return donors[donorStorageAddress];\r\n    }\r\n\r\n    function getRecipientList() public view onlyHospital returns (Recipient[] memory) {\r\n        return recipients[recipientStorageAddress];\r\n    }\r\n\r\n    function getHospitalList() public view returns (address[] memory) {\r\n        return hospitalAddresses;\r\n    }\r\n}\r\n",
  "sourcePath": "D:\\chain\\contracts\\OrganDonation.sol",
  "compiler": {
    "name": "solc",
    "version": "0.5.16+commit.9c3226ce.Emscripten.clang"
  },
  "schemaVersion": "3.4.16",
  "updatedAt": "2025-03-23T06:33:26.923Z",
  "networkType": "ethereum",
  "devdoc": {
    "methods": {}
  },
  "userdoc": {
    "methods": {}
  }
}